{
  "contractName": "Crowd",
  "abi": [
    {
      "inputs": [
        {
          "internalType": "uint256",
          "name": "",
          "type": "uint256"
        }
      ],
      "name": "contributers",
      "outputs": [
        {
          "internalType": "address",
          "name": "",
          "type": "address"
        }
      ],
      "stateMutability": "view",
      "type": "function"
    },
    {
      "inputs": [],
      "name": "noOfContributers",
      "outputs": [
        {
          "internalType": "uint256",
          "name": "",
          "type": "uint256"
        }
      ],
      "stateMutability": "view",
      "type": "function"
    },
    {
      "inputs": [],
      "name": "reciver",
      "outputs": [
        {
          "internalType": "address",
          "name": "",
          "type": "address"
        }
      ],
      "stateMutability": "view",
      "type": "function"
    },
    {
      "stateMutability": "payable",
      "type": "receive"
    },
    {
      "inputs": [],
      "name": "transfer",
      "outputs": [],
      "stateMutability": "payable",
      "type": "function"
    },
    {
      "inputs": [
        {
          "internalType": "uint256",
          "name": "withdrowAmt",
          "type": "uint256"
        }
      ],
      "name": "withdrow",
      "outputs": [],
      "stateMutability": "nonpayable",
      "type": "function"
    },
    {
      "inputs": [
        {
          "internalType": "address payable",
          "name": "rec",
          "type": "address"
        },
        {
          "internalType": "uint256",
          "name": "amt",
          "type": "uint256"
        }
      ],
      "name": "TransferMoney",
      "outputs": [],
      "stateMutability": "nonpayable",
      "type": "function"
    }
  ],
  "bytecode": "0x608060405234801561001057600080fd5b5061059b806100206000396000f3fe6080604052600436106100595760003560e01c80631fbed5791461006557806324274ee9146100a25780638a4068dd146100cd5780638e07a0d6146100d757806393ae006d14610100578063a4bbfb741461012957610060565b3661006057005b600080fd5b34801561007157600080fd5b5061008c600480360381019061008791906103b7565b610154565b6040516100999190610425565b60405180910390f35b3480156100ae57600080fd5b506100b7610187565b6040516100c4919061044f565b60405180910390f35b6100d561018d565b005b3480156100e357600080fd5b506100fe60048036038101906100f991906104a8565b6101e2565b005b34801561010c57600080fd5b50610127600480360381019061012291906103b7565b6102c1565b005b34801561013557600080fd5b5061013e610356565b60405161014b9190610425565b60405180910390f35b60016020528060005260406000206000915054906101000a900473ffffffffffffffffffffffffffffffffffffffff1681565b60005481565b33600160008054815260200190815260200160002060006101000a81548173ffffffffffffffffffffffffffffffffffffffff021916908373ffffffffffffffffffffffffffffffffffffffff160217905550565b81600260006101000a81548173ffffffffffffffffffffffffffffffffffffffff021916908373ffffffffffffffffffffffffffffffffffffffff1602179055508173ffffffffffffffffffffffffffffffffffffffff166108fc829081150290604051600060405180830381858888f19350505050158015610269573d6000803e3d6000fd5b5033600160008054815260200190815260200160002060006101000a81548173ffffffffffffffffffffffffffffffffffffffff021916908373ffffffffffffffffffffffffffffffffffffffff1602179055505050565b671bc16d674ec8000081101561030c576040517f08c379a000000000000000000000000000000000000000000000000000000000815260040161030390610545565b60405180910390fd5b3373ffffffffffffffffffffffffffffffffffffffff166108fc829081150290604051600060405180830381858888f19350505050158015610352573d6000803e3d6000fd5b5050565b600260009054906101000a900473ffffffffffffffffffffffffffffffffffffffff1681565b600080fd5b6000819050919050565b61039481610381565b811461039f57600080fd5b50565b6000813590506103b18161038b565b92915050565b6000602082840312156103cd576103cc61037c565b5b60006103db848285016103a2565b91505092915050565b600073ffffffffffffffffffffffffffffffffffffffff82169050919050565b600061040f826103e4565b9050919050565b61041f81610404565b82525050565b600060208201905061043a6000830184610416565b92915050565b61044981610381565b82525050565b60006020820190506104646000830184610440565b92915050565b6000610475826103e4565b9050919050565b6104858161046a565b811461049057600080fd5b50565b6000813590506104a28161047c565b92915050565b600080604083850312156104bf576104be61037c565b5b60006104cd85828601610493565b92505060206104de858286016103a2565b9150509250929050565b600082825260208201905092915050565b7f6d696e696d756d2032206574686572207472616e736665720000000000000000600082015250565b600061052f6018836104e8565b915061053a826104f9565b602082019050919050565b6000602082019050818103600083015261055e81610522565b905091905056fea2646970667358221220308992ac43c3410350cc5c5b969a42042596c35f4d6246ed8da3074c7585742164736f6c634300080b0033",
  "immutableReferences": {},
  "source": "// SPDX-License-Identifier: MIT\r\npragma solidity >=0.4.22 <0.9.0;\r\n\r\ncontract Crowd{\r\n    uint public noOfContributers;\r\n\r\n    mapping(uint=>address) public contributers;\r\n    address public reciver;   \r\n    receive() external payable{}\r\n\r\n    function transfer() external payable{\r\n        contributers[noOfContributers]=msg.sender;\r\n    }\r\n\r\n    function withdrow(uint withdrowAmt) external{\r\n\r\n        require(withdrowAmt >= 2000000000000000000 ,\"minimum 2 ether transfer\");\r\n            payable(msg.sender).transfer(withdrowAmt);\r\n    }\r\n\r\n     function TransferMoney(address payable rec ,uint amt) external  {\r\n        reciver = rec;\r\n        rec.transfer(amt);\r\n        contributers[noOfContributers]=msg.sender;\r\n\r\n\r\n\r\n   }\r\n}",
  "sourcePath": "D:\\Ethereum\\Projects\\OldAgeHome\\contracts\\Crowd.sol",
  "compiler": {
    "name": "solc",
    "version": "0.8.11+commit.d7f03943.Emscripten.clang"
  },
  "schemaVersion": "3.4.5",
  "updatedAt": "2022-02-27T07:13:52.706Z",
  "devdoc": {
    "kind": "dev",
    "methods": {},
    "version": 1
  },
  "userdoc": {
    "kind": "user",
    "methods": {},
    "version": 1
  }
}